:100000000C945E000C947B000C947B000C947B00A1
:100010000C947B000C947B000C947B000C947B0074
:100020000C947B000C947B000C947B000C947B0064
:100030000C947B000C947B000C947B000C947B0054
:100040000C947B000C947B000C947B000C947B0044
:100050000C947B000C947D000C94B0000C947B00FD
:100060000C947B000C947B000C947B000C947B0024
:100070000C947B000C947B000C947B000C947B0014
:100080000C947B000C947B000C947B000C947B0004
:100090000C947B000C947B000C947B000C947B00F4
:1000A0000C947B000C947B000C947B000000FF0000
:1000B000000000010100000000FF000011241FBE2D
:1000C000CFEFDAE0DEBFCDBF11E0A0E0B1E0EAE1C2
:1000D000F6E002C005900D92A630B107D9F721E0F5
:1000E000A6E0B1E001C01D92A231B207E1F70E9483
:1000F000DA020C940B030C9400001F920F920FB6BF
:100100000F9211242F938F939F93EF93FF938091DE
:10011000060124E08202C00111248F708093060141
:100120001C9B03C08260809306011D9B05C08091CB
:100130000601816080930601E09106010E2E000CFD
:10014000FF0BE455FF4FE491E0931001FF91EF9115
:100150009F918F912F910F900FBE0F901F90189528
:100160001F920F920FB60F9211248F939F9383B11A
:10017000807490910E01993C30F091E090931101C0
:100180008823D1F016C081110AC09F5F9B3F18F4ED
:1001900090930E0114C089EF80930E0110C08091DE
:1001A0000E01843030F081E080930F0110920E0137
:1001B00006C010920E0103C081E080930E019F9152
:1001C0008F910F900FBE0F901F9018958AB18F6975
:1001D0008AB985B1806785B984B5826084BD85B5EB
:1001E000836085BD89EF87BD88E188BDEEE6F0E0DC
:1001F00080818660808378940895F89480911001BE
:100200001092100178940895F89480910F01109243
:100210000F0178940895F8948091110110921101C2
:100220007894089580910701909108018F3F91057E
:1002300009F040F49FEF90930D0180930C01109210
:100240000B010895811522E0920748F48095809370
:100250000D018FEF80930C0110920B010895811511
:1002600023E0920740F410920D019FEF90930C0150
:1002700080930B010895811524E0920748F41092B1
:100280000D01809580930C018FEF80930B010895F1
:10029000811525E0920740F480930D0110920C0126
:1002A0008FEF80930B010895811526E0920748F4A3
:1002B0009FEF90930D0110920C01809580930B019C
:1002C0000895803D974028F410920801109207018C
:1002D00008958FEF95E090930801809307010895AA
:1002E00080910001909101018F3F910509F030F458
:1002F0009FEF90930A01809309010895811522E0F0
:10030000920738F4809580930A018FEF809309015A
:100310000895811523E0920730F480930A018FEF4E
:10032000809309010895811524E0920738F49FEF26
:1003300090930A018095809309010895803D97402C
:1003400028F4109201011092000108958FEF93E0BC
:10035000909301018093000108950F931F93CF9311
:10036000DF93C0910301D0E020910D012C9FC001CB
:100370002D9F900D11240FE710E0B8010E94E302B9
:10038000262F30910C013C9FC0013D9F900D112400
:10039000B8010E94E302362F40910B014C9FC0012F
:1003A0004D9F900D1124B8010E94E302462F5091F9
:1003B0000A015C9FC0015D9F900D1124B8010E944D
:1003C000E302E62F509109015C9FC0015D9F900DF3
:1003D0001124B8010E94E302F62F509104015C9FA2
:1003E000C0015D9F900D1124B8010E94E30221110C
:1003F0005F9A31115C9A4111589AE111599AF111A1
:100400005A9A6623C1F05B9A16C0821708F05F986B
:10041000831708F05C98841708F058988E1708F036
:1004200059988F1708F05A98861708F05B988F5FD5
:100430008F3F59F702C080E0E8CFDF91CF911F9145
:100440000F910895CF93CFE715C00E94FD00880F4C
:10045000990B90910301890F893C18F010920301C8
:1004600007C088231CF08093030102C0C0930301DE
:100470000E94AD010E940401882339F3CF910895B1
:1004800010920D0110920B0110920C011FC00E94DE
:10049000FD00082E000C990B9C01220F331F820FC8
:1004A000931F880F991F2091000130910101820F45
:1004B000931F90930101809300010E9470010E949C
:1004C000AD010E940B0181110E9422020E940401D1
:1004D0008823E9F2089510920A01109209011FC0C1
:1004E0000E94FD00082E000C990B9C01220F331F67
:1004F000820F931F880F991F2091070130910801E7
:10050000820F931F90930801809307010E941201AC
:100510000E94AD010E940B0181110E9422020E94E3
:1005200004018823E9F208951F93CF93DF9310927B
:100530000A011092090114E6DAE034C08091070143
:100540009091080101969093080180930701809192
:100550000201882339F1C0E00E94FD00082E000C42
:10056000990B9C01220F331F820F931F9091020160
:10057000981B909302019A3018F4D093020104C0A2
:10058000953610F0109302010E9412010E94AD01F5
:100590000E940B0181110E942202CF5F8091020113
:1005A000C817D0F20E940401882341F2DF91CF9155
:1005B0001F9108950E94E6000E9440020E946B0273
:1005C0000E949402F9CF97FB072E16F4009407D0EF
:1005D00077FD09D00E94F70207FC05D03EF4909504
:1005E00081959F4F0895709561957F4F0895AA1B3F
:1005F000BB1B51E107C0AA1FBB1FA617B70710F00E
:10060000A61BB70B881F991F5A95A9F7809590953F
:0A061000BC01CD010895F894FFCF5E
:06061A00FF001E7F7F00BF
:00000001FF
